{
  "contractName": "EvidenceTracker",
  "abi": [
    {
      "constant": true,
      "inputs": [
        {
          "name": "",
          "type": "uint256"
        }
      ],
      "name": "evidences",
      "outputs": [
        {
          "name": "ipfsHash",
          "type": "string"
        },
        {
          "name": "caseId",
          "type": "uint256"
        },
        {
          "name": "timestamp",
          "type": "uint256"
        }
      ],
      "payable": false,
      "stateMutability": "view",
      "type": "function"
    },
    {
      "constant": true,
      "inputs": [
        {
          "name": "",
          "type": "uint256"
        }
      ],
      "name": "firs",
      "outputs": [
        {
          "name": "ipfsHash",
          "type": "string"
        },
        {
          "name": "officer",
          "type": "address"
        },
        {
          "name": "timestamp",
          "type": "uint256"
        },
        {
          "name": "isOpen",
          "type": "bool"
        }
      ],
      "payable": false,
      "stateMutability": "view",
      "type": "function"
    },
    {
      "anonymous": false,
      "inputs": [
        {
          "indexed": true,
          "name": "firId",
          "type": "uint256"
        },
        {
          "indexed": false,
          "name": "ipfsHash",
          "type": "string"
        }
      ],
      "name": "FIRCreated",
      "type": "event"
    },
    {
      "anonymous": false,
      "inputs": [
        {
          "indexed": true,
          "name": "evidenceId",
          "type": "uint256"
        },
        {
          "indexed": false,
          "name": "caseId",
          "type": "uint256"
        }
      ],
      "name": "EvidenceAdded",
      "type": "event"
    },
    {
      "constant": false,
      "inputs": [
        {
          "name": "_ipfsHash",
          "type": "string"
        }
      ],
      "name": "createFIR",
      "outputs": [],
      "payable": false,
      "stateMutability": "nonpayable",
      "type": "function"
    },
    {
      "constant": false,
      "inputs": [
        {
          "name": "_caseId",
          "type": "uint256"
        },
        {
          "name": "_ipfsHash",
          "type": "string"
        }
      ],
      "name": "addEvidence",
      "outputs": [],
      "payable": false,
      "stateMutability": "nonpayable",
      "type": "function"
    },
    {
      "constant": true,
      "inputs": [
        {
          "name": "_firId",
          "type": "uint256"
        }
      ],
      "name": "getFIR",
      "outputs": [
        {
          "name": "",
          "type": "string"
        },
        {
          "name": "",
          "type": "address"
        },
        {
          "name": "",
          "type": "uint256"
        },
        {
          "name": "",
          "type": "bool"
        }
      ],
      "payable": false,
      "stateMutability": "view",
      "type": "function"
    },
    {
      "constant": true,
      "inputs": [
        {
          "name": "_evidenceId",
          "type": "uint256"
        }
      ],
      "name": "getEvidence",
      "outputs": [
        {
          "name": "",
          "type": "string"
        },
        {
          "name": "",
          "type": "uint256"
        },
        {
          "name": "",
          "type": "uint256"
        }
      ],
      "payable": false,
      "stateMutability": "view",
      "type": "function"
    }
  ],
  "bytecode": "0x608060405234801561001057600080fd5b50610af2806100206000396000f3fe6080604052600436106100775763ffffffff7c01000000000000000000000000000000000000000000000000000000006000350416631c3665eb811461007c5780632e4546cd146101385780639548ec7c146101e8578063a4de172d1461029b578063c956f14314610382578063f1a5c418146103ac575b600080fd5b34801561008857600080fd5b506101366004803603604081101561009f57600080fd5b813591908101906040810160208201356401000000008111156100c157600080fd5b8201836020820111156100d357600080fd5b803590602001918460018302840111640100000000831117156100f557600080fd5b91908080601f0160208091040260200160405190810160405280939291908181526020018383808284376000920191909152509295506103d6945050505050565b005b34801561014457600080fd5b506101626004803603602081101561015b57600080fd5b5035610499565b6040518080602001848152602001838152602001828103825285818151815260200191508051906020019080838360005b838110156101ab578181015183820152602001610193565b50505050905090810190601f1680156101d85780820380516001836020036101000a031916815260200191505b5094505050505060405180910390f35b3480156101f457600080fd5b506101366004803603602081101561020b57600080fd5b81019060208101813564010000000081111561022657600080fd5b82018360208201111561023857600080fd5b8035906020019184600183028401116401000000008311171561025a57600080fd5b91908080601f016020809104026020016040519081016040528093929190818152602001838380828437600092019190915250929550610556945050505050565b3480156102a757600080fd5b506102c5600480360360208110156102be57600080fd5b50356106e2565b60405180806020018573ffffffffffffffffffffffffffffffffffffffff1673ffffffffffffffffffffffffffffffffffffffff16815260200184815260200183151515158152602001828103825286818151815260200191508051906020019080838360005b8381101561034457818101518382015260200161032c565b50505050905090810190601f1680156103715780820380516001836020036101000a031916815260200191505b509550505050505060405180910390f35b34801561038e57600080fd5b50610162600480360360208110156103a557600080fd5b50356107c1565b3480156103b857600080fd5b506102c5600480360360208110156103cf57600080fd5b50356108b7565b60408051606081018252828152602080820185905242928201929092526001805480820180835560009290925282518051929460039092027fb10e2d527612073b26eecdfd717e6a320cf44b4afac2b0732d9fcbe2b7fa0cf6019261043e92849201906109e2565b50602082015181600101556040820151816002015550505060018080549050037fcd61ec3886ae430db8b51de7203ddb514e6b6d0d092a7ae47990ca87b9a0d322836040518082815260200191505060405180910390a25050565b60018054829081106104a757fe5b60009182526020918290206003919091020180546040805160026001841615610100026000190190931692909204601f8101859004850283018501909152808252919350918391908301828280156105405780601f1061051557610100808354040283529160200191610540565b820191906000526020600020905b81548152906001019060200180831161052357829003601f168201915b5050505050908060010154908060020154905083565b604080516080810182528281523360208083019190915242928201929092526001606082018190526000805491820180825590805282518051919460049093027f290decd9548b62a8d60345a988386fc84ba6bc95484008f6362f93160ef3e56301926105c8928492909101906109e2565b5060208201518160010160006101000a81548173ffffffffffffffffffffffffffffffffffffffff021916908373ffffffffffffffffffffffffffffffffffffffff1602179055506040820151816002015560608201518160030160006101000a81548160ff0219169083151502179055505050506001600080549050037f046af898b9ce69726a7881a2f090dbdd06e11e8fa03b8f9f330a80354dee38b0826040518080602001828103825283818151815260200191508051906020019080838360005b838110156106a557818101518382015260200161068d565b50505050905090810190601f1680156106d25780820380516001836020036101000a031916815260200191505b509250505060405180910390a250565b60008054829081106106f057fe5b60009182526020918290206004919091020180546040805160026001841615610100026000190190931692909204601f8101859004850283018501909152808252919350918391908301828280156107895780601f1061075e57610100808354040283529160200191610789565b820191906000526020600020905b81548152906001019060200180831161076c57829003601f168201915b5050505060018301546002840154600390940154929373ffffffffffffffffffffffffffffffffffffffff9091169290915060ff1684565b60606000806107ce610a60565b60018054869081106107dc57fe5b600091825260209182902060408051600393909302909101805460026001821615610100026000190190911604601f810185900490940283016080908101909252606083018481529293909284929091849184018282801561087f5780601f106108545761010080835404028352916020019161087f565b820191906000526020600020905b81548152906001019060200180831161086257829003601f168201915b505050918352505060018201546020808301919091526002909201546040918201528251918301519201519097919650945092505050565b606060008060006108c6610a82565b60008054879081106108d457fe5b600091825260209182902060408051600493909302909101805460026001821615610100026000190190911604601f8101859004909402830160a090810190925260808301848152929390928492909184918401828280156109775780601f1061094c57610100808354040283529160200191610977565b820191906000526020600020905b81548152906001019060200180831161095a57829003601f168201915b5050509183525050600182015473ffffffffffffffffffffffffffffffffffffffff16602080830191909152600283015460408084019190915260039093015460ff161515606092830152835190840151928401519390910151909991985091965090945092505050565b828054600181600116156101000203166002900490600052602060002090601f016020900481019282601f10610a2357805160ff1916838001178555610a50565b82800160010185558215610a50579182015b82811115610a50578251825591602001919060010190610a35565b50610a5c929150610aa9565b5090565b6060604051908101604052806060815260200160008152602001600081525090565b60408051608081018252606080825260006020830181905292820183905281019190915290565b610ac391905b80821115610a5c5760008155600101610aaf565b9056fea165627a7a723058202b411a05e2ffa5bd463d697faa8370282c83e42a9a5c017e3f8c9dfad9bd02a10029",
  "source": "// SPDX-License-Identifier: MIT\r\npragma solidity ^0.5.0;\r\n\r\ncontract EvidenceTracker {\r\n    struct FIR {\r\n        string ipfsHash;\r\n        address officer;\r\n        uint256 timestamp;\r\n        bool isOpen;\r\n    }\r\n    \r\n    struct Evidence {\r\n        string ipfsHash;\r\n        uint256 caseId;\r\n        uint256 timestamp;\r\n    }\r\n\r\n    FIR[] public firs;\r\n    Evidence[] public evidences;\r\n\r\n    event FIRCreated(uint256 indexed firId, string ipfsHash);\r\n    event EvidenceAdded(uint256 indexed evidenceId, uint256 caseId);\r\n\r\n    function createFIR(string memory _ipfsHash) public {\r\n        firs.push(FIR(\r\n            _ipfsHash,\r\n            msg.sender,\r\n            block.timestamp,\r\n            true\r\n        ));\r\n        emit FIRCreated(firs.length - 1, _ipfsHash);\r\n    }\r\n\r\n    function addEvidence(uint256 _caseId, string memory _ipfsHash) public {\r\n        evidences.push(Evidence(\r\n            _ipfsHash,\r\n            _caseId,\r\n            block.timestamp\r\n        ));\r\n        emit EvidenceAdded(evidences.length - 1, _caseId);\r\n    }\r\n\r\n    function getFIR(uint256 _firId) public view returns (string memory, address, uint256, bool) {\r\n        FIR memory fir = firs[_firId];\r\n        return (fir.ipfsHash, fir.officer, fir.timestamp, fir.isOpen);\r\n    }\r\n\r\n    function getEvidence(uint256 _evidenceId) public view returns (string memory, uint256, uint256) {\r\n        Evidence memory evidence = evidences[_evidenceId];\r\n        return (evidence.ipfsHash, evidence.caseId, evidence.timestamp);\r\n    }\r\n}",
  "sourcePath": "C:\\Users\\kjalf\\AndroidStudioProjects\\newsecure\\blockchain\\contracts\\Evidence.sol",
  "compiler": {
    "name": "solc",
    "version": "0.5.0+commit.1d4f565a.Emscripten.clang"
  },
  "schemaVersion": "3.4.16",
  "updatedAt": "2025-03-01T23:17:00.653Z",
  "networkType": "ethereum",
  "devdoc": {
    "methods": {}
  },
  "userdoc": {
    "methods": {}
  }
}